:1000000002000375818F120182E582600302006F96
:10001000780079007A007B007C007D00EC4D601C4C
:1000200088828983E493A3A882A9838A828B83F040
:10003000A3AA82AB831CBCFFE31D80E07582007520
:1000400083007C227D00EC4D600AE4F0A31CBCFF21
:10005000F51D80F27582007583007C007D00EC4DFB
:10006000600AE4F0A31CBCFFF51D80F212018112AE
:100070000A1D80FE1B5B324A0A004144432074651E
:1000800073742070726F6772616D0A46696C653AAD
:100090002025730A436F6D70696C65643A2025737F
:1000A0002C2025730A0A00443A5C454C4543203213
:1000B00039315C4C6162355C4C6162352E63004DB8
:1000C000617220313220323032310031353A3531EF
:1000D0003A313700524D5331203D25312E3266568C
:1000E0002C20524D5332203D25312E3266562C2085
:1000F0005068617365203D25312E31662C20667273
:10010000657175656E6379203D25332E32660D204D
:100110000A002048616C6620746865207065726909
:100120006F642069732025322E36662C205065615D
:100130006B20566F6C746167652031203D25322E2F
:1001400036662C205065616B20566F6C7461676554
:100150002032203D25322E36662020005068617303
:10016000653D25312E316620524D53313D002531FC
:100170002E32665620524D53323D25312E32665670
:10018000002275A7007597DE7597AD75FF8075EF36
:100190000675A71075C12075A70075A90075A9007F
:1001A000E5A930E7FB75A90375A903E5A930E7FBCD
:1001B00043A41075E10175E20075E3407598107570
:1001C0008DE6858D8B53890F438920D28ED2997508
:1001D00082002275A700C2EF75B28075BC2075B988
:1001E0001E75E80075DF3F75B300D2EF22AA824387
:1001F0008E407592B87593FF85929485939575910D
:10020000047B00C3EB9A500BE59130E7FB53917FE1
:100210000B80F075910022AA82AB837C007D00C325
:10022000EC9AED9B502B7E00BE0400501D7582FAA7
:10023000C002C003C004C005C0061201EDD006D044
:1002400005D004D003D0020E80DE0CBC00D10D809E
:10025000CE22D2967582281201EDC29622AA828AF7
:10026000E0A2E79286A2E69287A2E59290A2E492AB
:1002700091C0021202527582281201EDD0028AE06A
:10028000A2E39286A2E29287A2E19290A2E09291EA
:10029000020252AA82D2A08A8212025D9000020259
:1002A0000217AA82C2A08A8212025D900005020291
:1002B00017C296C297900014120217758233120269
:1002C000A27582331202A27582321202A2758228AE
:1002D0001202A275820C1202A27582011202A29071
:1002E0000014020217AA82AB83ACF07402B5220498
:1002F0007DC080027D808D82C002C003C0041202D6
:10030000A2900005120217D004D003D0027D007E17
:1003100000ED2AFFEE3BF88C018F82888389F01272
:100320000DC9FF60208F82C002C003C004C005C099
:1003300006120293D006D005D004D003D0020DBD22
:1003400000CF0E80CC3000248D028E03C3EA9410BF
:10035000EB648094805015758220C002C0031202A5
:1003600093D003D0020ABA00E30B80E022858225F5
:1003700085832685F027E4F528F529E52324FFFF6A
:10038000E52434FFF879007A00C3E99FEA648088A5
:10039000F063F08095F05059C002C007C000C00162
:1003A000120F62AB82D001D000D007D002BB0A028C
:1003B0008003BB0D1DE5282525FCE5293526FDAE6E
:1003C000278C828D838EF0E4120F75852882852913
:1003D0008322E92525FCEA3526FDAE278C828D8314
:1003E0008EF0EB120F7509B900010A89288A29805D
:1003F00098E5282525FAE5293526FBAC278A828B46
:10040000838CF0E4120F7585238285248322AA82CF
:100410008511F005F07401800225E0D5F0FBFB7535
:10042000A720BA0002800ABA0102800FBA021E8019
:1004300014EBF4FA52F1EB42D48012EBF4FA52F2DC
:10044000EB42D58008EBF4FA52F3EB42CC75A700EF
:10045000228582BBC2EDD2EC30EDFD85BD8285BE2A
:100460008322120451120DE5AA82AB83ACF0FDC0C9
:1004700002C003C004C005906C8B75F05374401229
:100480000E25AA82AB83ACF0FDE58124FCF581E466
:10049000C0E074FCC0E0747FC0E07446C0E08A82B3
:1004A0008B838CF0ED121046AA82AB83ACF0FDE595
:1004B0008124FCF5818A828B838CF0ED22C28C53DF
:1004C00089F0438901758C00758A007A007B007C75
:1004D000007D00C28D20A3FD30A3FD7582F4C00213
:1004E000C003C004C0051201EDD005D004D003D074
:1004F0000220A303020614D28C30A32B108D02809D
:10050000F8E4C0E0C0E07480C0E0743FC0E08A82DC
:100510008B838CF0ED120ED3AA82AB83ACF0FDE599
:100520008124FCF58180D2C28CC002C003C004C00B
:100530000590000075F0807447120E25AA82AB83E7
:10054000ACF0FDE58124FCF581858C82C002C003FE
:10055000C004C005120EC8AE82AF83A8F0F9C00671
:10056000C007C000C00190000075F0807443120EF7
:1005700025AE82AF83A8F0F9E58124FCF581D00592
:10058000D004D003D002C006C007C000C0018A82D8
:100590008B838CF0ED120ED3AA82AB83ACF0FDE519
:1005A0008124FCF581AE8A7F008E828F83C002C0D9
:1005B00003C004C005121039AE82AF83A8F0F9D091
:1005C00005D004D003D002C006C007C000C0018A15
:1005D000828B838CF0ED120ED3AA82AB83ACF0FD3C
:1005E000E58124FCF581E4C0E0741BC0E074B7C071
:1005F000E0744AC0E08A828B838CF0ED121046AA28
:1006000082AB83ACF0FDE58124FCF5818A828B838B
:100610008CF0ED220204BDC28C5389F04389017530
:100620008C00758A007A007B007C007D00C28D20E2
:10063000A3FD20A2FA30A2FD7582F4C002C003C05F
:1006400004C0051201EDD005D004D003D00220A2D1
:1006500003020771D28C30A32B108D0280F8E4C006
:10066000E0C0E07480C0E0743FC0E08A828B838C7D
:10067000F0ED120ED3AA82AB83ACF0FDE58124FC31
:10068000F58180D2C28CC002C003C004C0059000B6
:100690000075F0807447120E25AA82AB83ACF0FD82
:1006A000E58124FCF581858C82C002C003C004C0B2
:1006B00005120EC8AE82AF83A8F0F9C006C007C00D
:1006C00000C00190000075F0807443120E25AE82C8
:1006D000AF83A8F0F9E58124FCF581D005D004D0E2
:1006E00003D002C006C007C000C0018A828B838C81
:1006F000F0ED120ED3AA82AB83ACF0FDE58124FCB1
:10070000F581AE8A7F008E828F83C002C003C00451
:10071000C005121039AE82AF83A8F0F9D005D0041D
:10072000D003D002C006C007C000C0018A828B83FC
:100730008CF0ED120ED3AA82AB83ACF0FDE58124E0
:10074000FCF581E4C0E0741BC0E074B7C0E0744AFB
:10075000C0E08A828B838CF0ED121046AA82AB83B4
:10076000ACF0FDE58124FCF5818A828B838CF0ED71
:1007700022020617C28C5389F0438901758C0075DB
:100780008A007A007B007C007D00C28D20A3FD20C2
:10079000A2FA30A2FD7582F4C002C003C004C005F5
:1007A0001201EDD005D004D003D00220A20302082C
:1007B000CED28C20A32B108D0280F8E4C0E0C0E0E4
:1007C0007480C0E0743FC0E08A828B838CF0ED12AD
:1007D0000ED3AA82AB83ACF0FDE58124FCF58180C9
:1007E000D2C28CC002C003C004C00590000075F0E6
:1007F000807447120E25AA82AB83ACF0FDE58124FC
:10080000FCF581858C82C002C003C004C005120EB5
:10081000C8AE82AF83A8F0F9C006C007C000C0010F
:1008200090000075F0807443120E25AE82AF83A84D
:10083000F0F9E58124FCF581D005D004D003D00285
:10084000C006C007C000C0018A828B838CF0ED1205
:100850000ED3AA82AB83ACF0FDE58124FCF581AE1A
:100860008A7F008E828F83C002C003C004C005123D
:100870001039AE82AF83A8F0F9D005D004D003D0F0
:1008800002C006C007C000C0018A828B838CF0EDD5
:10089000120ED3AA82AB83ACF0FDE58124FCF58176
:1008A000E4C0E0741BC0E074B7C0E0744AC0E08AE2
:1008B000828B838CF0ED121046AA82AB83ACF0FDE4
:1008C000E58124FCF5818A828B838CF0ED2202077E
:1008D00074AA82AB83ACF0FD74D5C0E07404C0E0B0
:1008E00074B5C0E0743FC0E08A828B838CF0ED1257
:1008F0001046AA82AB83ACF0FDE58124FCF5818A29
:10090000828B838CF0ED22AA82C002C02AC02BC049
:100910002CC02D90000075F0FA7443120E25AB82A6
:10092000AC83ADF0FEE58124FCF581D00220A3FD6F
:1009300030A3FD7582F4C002C003C004C005C00628
:100940001201EDD006D005D004D003D00230A3169A
:100950008B828C838DF0EEC00212102E120217D003
:10096000028A820204628A82020907AA82C002C045
:100970002EC02FC030C03190000075F0FA744312C1
:100980000E25AB82AC83ADF0FEE58124FCF581D071
:100990000220A2FD30A2FD7582F4C002C003C00493
:1009A000C005C0061201EDD006D005D004D003D09A
:1009B0000230A2168B828C838DF0EEC00212102EB4
:1009C000120217D0028A820204628A8202096BAA8A
:1009D00082AB83ACF0FDC002C003C004C005900030
:1009E0000075F0B47443120E25AA82AB83ACF0FDFF
:1009F000E58124FCF581C032C033C034C0358A8221
:100A00008B838CF0ED121046AA82AB83ACF0FDE52F
:100A10008124FCF5818A828B838CF0ED221202B155
:100A20009001F41202177474C0E07400C0E0748086
:100A3000C0E0120F4115811581158174CBC0E0749F
:100A400000C0E07480C0E074BFC0E07400C0E07417
:100A500080C0E074A7C0E07400C0E07480C0E0749F
:100A60007AC0E07400C0E07480C0E0120F41E581FC
:100A700024F4F58175110475820212040E751105B6
:100A800075820212040E1201D3758211120462AA39
:100A900082AB83ACF0FD8A3E8B3F8C408D417582EA
:100AA00012120462AA82AB83ACF0FD8A428B438CA3
:100AB000448D451204BD85824E85834F85F050F5E7
:100AC00051854E2A854F2B85502C85512D758212CC
:100AD000120907AE82AF83AAF0FB8E368F378A38B1
:100AE0008B39854E2E854F2F85503085513175823B
:100AF0001112096BAA82AB83ACF0FD8A3A8B3B8C56
:100B00003C8D3D12061785824685834785F048F562
:100B10004912077485824A85834B85F04CF54DC098
:100B20004EC04FC050C051900000E4F5F074401228
:100B30000E2585826685836785F068F569E58124E1
:100B4000FCF581856632856733856834856935852E
:100B500046828547838548F0E5491209CF85826A38
:100B600085836B85F06CF56DC066C067C068C06931
:100B70009074BC75F013743D121046AC82AD83AA1C
:100B8000F0FBE58124FCF581C004C005C002C00370
:100B9000856A82856B83856CF0E56D120ED3AA821F
:100BA000AB83ACF0FDE58124FCF581C002C003C03D
:100BB00004C00590000075F0347443121023858240
:100BC0005285835385F054F555E58124FCF58185E4
:100BD0006632856733856834856935854A82854BF9
:100BE00083854CF0E54D1209CF85826A85836B853C
:100BF000F06CF56DC066C067C068C06990F6BE75E0
:100C0000F0CC743D121046AC82AD83AAF0FBE581B6
:100C100024FCF581C004C005C002C003856A82853A
:100C20006B83856CF0E56D120ED3AA82AB83ACF0BA
:100C3000FDE58124FCF5818A568B578C58EDB2E78F
:100C4000F5598536828537838538F0E5391208D124
:100C5000AE82AF83AAF0FB8E5A8F5B8A5C8B5D8578
:100C60003A82853B83853CF0E53D1208D1AA82ABF0
:100C700083ACF0FD8A5E8B5F8C608D61C066C0675F
:100C8000C068C06990000075F080743F12104685FE
:100C9000826285836385F064F565E58124FCF581D6
:100CA0008552828553838554F0E555120DF1AE824D
:100CB000AF83BEB105BF0002800EBEB205BF000209
:100CC0008006BEB30DBF000AAE56AF57AA58AB5947
:100CD0008008AE52AF53AA54AB55C002C003C00641
:100CE000C007C062C063C064C065C006C007C00260
:100CF000C003C05EC05FC060C061C05AC05BC05C62
:100D0000C05D74D4C0E07400C0E07480C0E0120F15
:100D100041E58124EDF581C03AC03BC03CC03DC0F7
:100D200036C037C038C039C04EC04FC050C05174F3
:100D300012C0E07401C0E07480C0E0120F41E58190
:100D400024F1F581D007D006D003D002C006C00739
:100D5000C002C003745CC0E07401C0E07480C0E0F5
:100D60007411C0E07400C0E0E4C0E0120FDDE58162
:100D700024F6F581C05EC05FC060C061C05AC05B30
:100D8000C05CC05D746EC0E07401C0E07480C0E0FF
:100D90007400C0E07400C0E0E4C0E0120FDDE58143
:100DA00024F2F581752201D20090001175F0001235
:100DB00002E5752202D20090000075F0001202E5F3
:100DC0009007D0120217020A8920F71430F614880F
:100DD00083A88220F507E6A88375830022E280F7C6
:100DE000E49322E022E4AC83AB82FAF9748E021120
:100DF0006E121178700AE582458345F0700122E495
:100E000030D112F4700BE5F0F47006E58330E701A1
:100E10002290800022700AE5F07006E58320E70149
:100E200022907FFF22121255BC00030211F4EF60E2
:100E3000FA30D502B2D1E583B4FF0302120AE5828B
:100E4000B4FF0302120A258340072482400B0211DB
:100E5000F4248314500302120AF582EA8DF0A4A848
:100E6000F0EA8EF0A428F8E435F0F9EB8DF0A42830
:100E7000E935F0F9E433CA8FF0A429F9EA35F0FA3C
:100E8000EBF88EF0A429F9EA35F0FAE433FBEC8DA7
:100E9000F0A429F9EA35F0FAE43BFBE88FF0A42A44
:100EA000FAEB35F0FBE433CCFD8EF0A42AFAEB35F7
:100EB000F0FBE43CFCED8FF0A42BFBEC35F0FC20C8
:100EC000E7031212220211D3E4AC82FBFAF9748612
:100ED00002116E1212557900E583B58202800D5021
:100EE00003121283E583C3958212129DE5D0C46577
:100EF000D020E117EA2DFAEB3EFBEC3FFC500974E1
:100F00000112129DEC4480FC0211D3C3EA9DFAEB5E
:100F10009EFBEC9FFC500FC3E499F9E49AFAE49B22
:100F2000FBE49CFCB2D11212220211D3021C6C858C
:100F3000827C85837D85F07E85107F900F2C021644
:100F4000BFC008858108E50824FBF57FE50824FB80
:100F5000F8867C08867D08867E900F2C1216BFD0FE
:100F6000082210980280FBAA998A82C002121C6C87
:100F7000D0028A822220F71030F6118883A88220BE
:100F8000F507F6A88375830022F280F7F022AA8283
:100F9000AB09AC0AAD0B8B828C838DF0EA120F7516
:100FA0000509E4B50902050A2285820985830A85B7
:100FB000F00B850C7C850D7D850E7E850F7F900F57
:100FC0008E1216BFAA82AB83AC09AD0AAE0B8C821F
:100FD0008D838EF0E4120F758A828B8322C0088580
:100FE0008108E50824F8F57FE50824FBF886090860
:100FF000860A08860BE50824F8F8867C08867D08B2
:10100000867E900F8E1216BFAA82AB83AC09AD0A02
:10101000AE0B8C828D838EF0E4120F758A828B83E7
:10102000D00822A8811818C6B2E7C6020ED37F8E58
:10103000121C83F58385F08222AC83AB827A00791F
:1010400000748E021CB112125530D502B2D1BF000D
:1010500009BC000302121702120ABC00030211F4B9
:10106000E583B4FF0BE582B4FF030212170211F40B
:10107000E582B4FF0302120AC395835007247F4020
:101080000B0211F4248014500302120AC0E0E4CCD5
:10109000CBCAF98D118E128F13EF54F0C4F514756D
:1010A00083068514F0EB84F582E9C4F9EAC4FAEB0F
:1010B000C4FBEC540FC47803D6FC18EBD6FB18EA3B
:1010C000D6FA8582F0EDA4A8F0FD8582F0EEA42882
:1010D000FEE435F0F88582F0EFA428FFE435F0F85F
:1010E000E99DF9EA9EFAEB9FFBEC98FCAD11AE127C
:1010F000AF1330E7101582E92DF9EA3EFAEB3FFB1A
:10110000E43CFC80EDC082D58398C3E933F9EA332F
:10111000FAEB33FBEC33FCC3E99DEA9EEB9FEC94C6
:1011200000B3E413F9D002D0E0C44AFAD003D0E00F
:10113000C44BFBD004D0E0F5F0540FC44CFCD0827B
:10114000158230F40FD3EC13FCEB13FBEA13FAE92E
:1011500013F90582E930E70A74012AFAE43BFBE45B
:101160003CFC0211EBFCABF0AA83A982749EC2D1B5
:10117000F5821212220211D3121CD5C3749E9582DD
:101180004039790012129D30D126E9F42401F5820C
:10119000EAF43400F583EBF43400F5F0ECF43400B9
:1011A000700AE582458345F0700122E430E70F22A2
:1011B000EC20E71489828A838BF02230D10AE4F58F
:1011C00082F583F5F074802274FFF582F583F5F0E3
:1011D000747F22B98003EA13B34010EA2401FAE4D1
:1011E0003BFBE43CFC50047C800582BC000EBB0051
:1011F0000BBA0008E4F5F0F583F58222A2D1E5826E
:10120000138CF092F78B838A8222E4F583F5827542
:10121000F080F4A2D11322E4F583F58275F0C07456
:101220007F227804EC7011E58224F8500AF582E4FC
:10123000C9CACBFCD8EF22EC7820058220E713D571
:10124000820122C3E933F9EA33FAEB33FBEC33FCD6
:10125000D8EA158222AA82AB83A2F73392D1600228
:10126000D2F7F582ACF0E58124F9F8E6FD08E6FE58
:101270000886F008E6A2F73392D56002D2F7F5832C
:10128000AFF022E582C583F582A2D133A2D592D1F7
:101290001392D5ECCFFCEBCEFBEACDFA226040F8FE
:1012A0002582500274FFF582E824F8501ECCCBCA88
:1012B000F9E4CC24F85014CBCAF9E4CB24F8500B51
:1012C000CAF9E4CA24F8500379002224086010F80F
:1012D000C3EC13FCEB13FBEA13FAE913F9D8F12280
:1012E000AA8274F1C0E07412C0E0C06EC06F8A823E
:1012F000220575E4B57502057622AA8274302AFAB1
:1013000024C6500A74072AFA3001034302208A8255
:101310000212E0E582FAC4540FF582C0021212FAFA
:10132000D002740F5AF5820212FAAA70AB71AC7235
:10133000AD73AE74757B20EE2EFEED235401FF429B
:1013400006EA2AFAEB33FBEC33FCED33FDC3EE95F2
:10135000774008EEC39577FE430201D57BD98A70AA
:101360008B718C728D738E7422788CE624D075F01C
:101370000AA4FA788DE624D02AFA788B8603BB2D4E
:1013800004C3E49AFA757701C3E464808AF063F0D9
:101390008095F05029757B038A0374F6257B401CE9
:1013A0000577E57B142480F8E57B2480F98704A683
:1013B00004772E1BEBFA6004057B80DE8B02EA309B
:1013C000E70D788186037882A6037881762E0AE578
:1013D00079600AE57904FB2577F5778005300C0202
:1013E000057778808603E4BB2D0104FB7006200797
:1013F0000330080205773005030214B0300657EBBE
:10140000600C75822DC0021212E0D002801C3007E1
:101410000C75822BC0021212E0D002800D30080A37
:10142000758220C0021212E0D00278818604BC2EA0
:101430000C758230C0021212E0D0021578AC78151B
:1014400078C3E5779C40030214F4758230C0021221
:1014500012E0D00280E7AC781578C3E5779C500C99
:10146000758220C0021212E0D00280EA78808604E1
:10147000BC2D0C75822DC0021212E0D002801C30EF
:10148000070C75822BC0021212E0D002800D3008CA
:101490000A758220C0021212E0D00278818604BC54
:1014A0002E52758230C0021212E0D00215788044AC
:1014B000EB600E75822DC0021212E0D0021578800A
:1014C0002030070E75822BC0021212E0D002157870
:1014D000800F30080C758220C0021212E0D0021575
:1014E0007878818603BB2E0C758230C0021212E020
:1014F000D0021578757B01C20EE57B2480F8860347
:10150000BB45030215B1BB2E348A03C3E464808B50
:10151000F063F08095F0500F758230C0031212E036
:10152000D0031B8B0280E48B02D20EE57970382049
:101530000C030215B175822E1212E08074300E2752
:101540008A03EB30E71FC3E464808579F063F080A1
:1015500095F0500C758230C0031212E0D00315795B
:101560000B8B0280DD8B02300E0EC3E46480857924
:10157000F063F08095F05021E57B2480F886038BA2
:1015800082C0021212E0D002300E0EE57B2480F8F9
:101590008603BB2E02800215791578C3E46480852A
:1015A00079F063F08095F04003200E05057B02146E
:1015B000F9C3E464808579F063F08095F0500A7592
:1015C00082301212E0157980E830050FAA7815787C
:1015D000EA60087582201212E080F122E57970033A
:1015E000300C0D74072579FAE578C39AF5788006F2
:1015F000E57824FAF578757B0078808602BA2B0F9F
:1016000020070C78807620200805757B010578205E
:101610000519AA78C3E464808AF063F08095F050DD
:101620000A7582201212E0157880E7C20EE57B244D
:1016300080F88602BA00028069BA451F300102763E
:1016400065C3E464808579F063F08095F0500A7595
:1016500082301212E0157980E8D20EC3E57B940245
:10166000E433FA7014EA700EC3E464808579F063A1
:10167000F08095F04003300E16E57B2480F886025A
:101680008A821212E0E57B24FD50121579800E74D7
:1016900002B57B09300C0675822E1212E0057B0222
:1016A000162D300519AA78C3E464808AF063F080AF
:1016B00095F0500A7582201212E0157880E7228595
:1016C000826E85836FE4F575F576AA7CAB7DAC7E82
:1016D0008A828B838CF0120DC9FD74012AF57CE49B
:1016E0003BF57D8C7EEDFA7003021C65BA25028005
:1016F00003021C5DC205C206C207C208C209C20AB3
:10170000C20BC20CC202C203C20475770075780016
:101710007579FFAB7CAC7DAD7E8B828C838DF012B6
:101720000DC9FAA3AB82AC838B7C8C7D8D7EBA25F0
:10173000078A821212E080928A06BE3000402E8A0A
:1017400006EE24C6402774FFB57913E57875F00AD4
:10175000A4FEEA24D02EF57870BFD20680BBE579CE
:1017600075F00AA4FEEA24D02EF57980ACBA2E0AD0
:1017700074FFB579A4757900809F8A06BE61004028
:101780000E8A06EE248540075302DFD2018002C292
:1017900001BA20028075BA230302181ABA2A03027A
:1017A000181FBA2B02805FBA2D028055BA42028000
:1017B0005FBA4303021864BA440302199FBA45038F
:1017C0000219B9BA46030219B5BA47030219BDBADC
:1017D000490302199FBA4C02803BBA4E030219C159
:1017E000BA4F030219A6BA5003021938BA530302BA
:1017F0001888BA55030219ABBA58030219B0021976
:10180000EBD205021719D207021719D208021719CD
:10181000D20A021719D20B021719D20C0217197427
:10182000FFB57920300A0BE57F14F8887F867802AF
:101830001719E57F24FEF8887F8606088607188E2C
:1018400078021719300A0BE57F14F8887F86790231
:101850001719E57F24FEF8887F8606088607188E0C
:1018600079021719300A0AE57F14F8887F8602800A
:101870000FE57F24FEF8887F8603088604188B0214
:101880008A821212E00219F0E57F24FDF8887F8633
:101890000308860408860518188B708C718D728B6E
:1018A000828C838DF0121E06AB82AC838B7A74FF20
:1018B000B57903857A7920051DC3E57A95785016A8
:1018C000E578C3957AF578AB781578EB6008758282
:1018D000201212E080F18570828571838572F0128A
:1018E0000DC9FBFA6029AB791579C3E464808BF0EC
:1018F00063F08095F050188A821212E0AB70AC71E0
:10190000AD720BBB00010C8B708C718D7280C72087
:1019100005030219F0C3E57A957840030219F0E552
:1019200078C3957AF578AB781578EB70030219F0E7
:101930007582201212E080EEE57F24FDF8887F8614
:101940000308860408860518188B708C718D72E563
:1019500072FB30E7047A438013EB546060047A50E2
:10196000800AEB30E6047A4980027A588A82C00203
:101970001212E075823A1212E07582301212E0758E
:1019800082781212E0D002BA4902800BBA5002806B
:10199000068571821213138570821213138051D23F
:1019A0000975770A804A757708804575770A8040FF
:1019B000757710803BD2028037D2038033D2048007
:1019C0002FE57F24FDF8887F8603088604088605B6
:1019D00018188B708C718D728B828C838DF0E575ED
:1019E000120F75A3E576120F7580058A821212E038
:1019F000200206200303300470E57F24FCF8887F72
:101A000086030886040886050886061818188B7051
:101A10008C718D728E73E570E571E572E5738B8262
:101A20008C838DF0EE121CE774FFB579037579068F
:101A3000300427747F5573FB8B74E574EB2BFB8BA1
:101A400074E57230E70674014574F574E574246832
:101A50004006749925744002D2033003061215DC47
:101A60000216CA1213690216CAE57770030216CA73
:101A70007B85300A2BE57F14F8887FE6FC3395E000
:101A8000FDFEFF8C708D718E728F7320095EAC70BD
:101A90007D007E007F008C708D718E728F73804C04
:101AA000300B1FE57F24FCF8887F86040886050834
:101AB00086060886071818188C708D718E728F73C1
:101AC000802AE57F24FEF8887F860408860518EDC5
:101AD0003395E0FEFF8C708D718E728F7320090C30
:101AE000AC70AD717E007F008E728F73300C43E559
:101AF0007045714572457360397408B5770C75820D
:101B000030C0031212E0D00380287410B57723751B
:101B10008230C0031212E0D00330010C758278C00D
:101B2000031212E0D003800A758258C0031212E03B
:101B3000D003300925AC70AD71AE72E573FF30E7AC
:101B400017C3E49CFCE49DFDE49EFEE49FFF8C70C3
:101B50008D718E728F738002C209757A00D20D8BDF
:101B600000757400C00012132AD000200D0DE5741A
:101B7000C4FCE6FD4CF61888038002A674057AB210
:101B80000DE57045714572457370D68803E5787030
:101B90000375780120061A200517E57A04FCC39521
:101BA00078500E758220C0031212E0D003157880A1
:101BB000E930090E75822DC0031212E0D0031578AA
:101BC0008024E57A602030070E75822BC003121244
:101BD000E0D0031578800F30080C758220C0031206
:101BE00012E0D003157820051EAC781578C3E57A8D
:101BF0009C50273006047C3080027C208C82C003FD
:101C00001212E0D00380E2C3E57A95785009E578B6
:101C1000C3957AF57880037578008B00AB7A157AD6
:101C2000EB6022B20D200D0A08E6C4540FFB8B7442
:101C300080078603740F5BF574857482C0001212EE
:101C4000FAD00080D72005030216CAAB781578EBCE
:101C500070030216CA7582201212E080EE8A821288
:101C600012E00216CA85758285768322AA82BA0A94
:101C70000810990280FB75990D10990280FB8A99D2
:101C8000227F9E121CD530D1030211F4C3EF95823E
:101C9000500974FFF5F0F583F58222790012129D48
:101CA00089828A838BF0EC22FCABF0AA83A9827430
:101CB0009EF582C2D1EC30E716D2D1E9F42401F9C5
:101CC000EAF43400FAEBF43400FBECF43400FC12D8
:101CD00012220211D3AA82AB83A2F73392D16002FF
:101CE000D2F7F582ACF022C0E0F84582458345F09A
:101CF0007009F5F0FBFCFDFE021DB5E823A2F7928A
:101D0000E0F8A982AA83D2F7ABF07C007E07C37407
:101D10009798404074FF2EFE740A89F0A4F985F06C
:101D200082740A8AF0A4FA85F083740A8BF0A4FB0B
:101D3000740529F9EA3582FAEB3583FB740035F036
:101D4000FCC3EC13FCEB13FBEA13FAE913F908EC00
:101D500070EF80BAE8C3947FF88B838EF0E4FBFCCD
:101D6000FDFEFF08C3E933F9EA33FAE58333F5836F
:101D7000EB3BD4FBEC3CD4FCED3DD4FDEE3ED4FE7D
:101D8000EF3FD4FF602D05F074052BD4FBE43CD469
:101D9000FCE43DD4FDE43ED4FEE43FD4FF75820470
:101DA000C3EF13FFEE13FEED13FDEC13FCEB13FB7F
:101DB000D582EDD8AF7880D0E020E704762B800282
:101DC000762D087906E7C4540F4430F608B90603A7
:101DD000762E08E7540F4430F60819B902E7764525
:101DE00008E5F020E704762B8004762DF4040875CE
:101DF000F00A844430F608E5F04430F608E4F69042
:101E0000008075F04022AA82AB83ACF07D007E009A
:101E10008A828B838CF0120DC9FFA3AA82AB83EF59
:101E200060070DBD00EA0E80E78D828E83220000E0
:00000001FF
